:020000020000FC
:0200000047C0F7
:04002C000C94A4008C
:1000680068656C6C6F2C20776F726C640A0053653E
:1000780074757020646F6E650A004461746120773E
:10008800616974696E670A0008E00EBF0FEF0DBF63
:1000980008E11EE20093C1001093C20000E019E1DC
:1000A8000093C5001093C400DD24EE24FF2409E06A
:1000B8000093810000E4009380000EE30093890020
:1000C8000FE70093880002E000936F0008E618E04D
:1000D8000AB914B901EA13E024E00093240000935C
:1000E800B000109325002093B10004E1009328008C
:1000F8000093B400009327000093B3000FEF0AB9F0
:100108000BB904B905B97894F0E0E6E72ED0F89475
:10011800DD24EE24FF2478940091C00007FD0AC076
:100128000AE010E020E0F894D016E106F206789490
:10013800D0F3EDCF0091C600F0E0E8E616D0F0CF9E
:100148000F930FB70F93D39419F4E39409F4F3942E
:100158000F910FBF0F9118950F930091C00005FBE9
:10016800E6F73093C6000F9108950F931F930591FA
:10017800002339F01091C00015FBE6F70093C60084
:08018800F6CF1F910F910895BD
:00000001FF
