:100000000C9434000C9451000C9451000C94510049
:100010000C9451000C9451000C9451000C9451001C
:100020000C9451000C9451000C9451000C94BB00A2
:100030000C9451000C9451000C9451000C945100FC
:100040000C9451000C9451000C9451000C945100EC
:100050000C9451000C9451000C9451000C945100DC
:100060000C9451000C94510011241FBECFEFD8E026
:10007000DEBFCDBF11E0A0E0B1E0E0EAFEE002C0EB
:1000800005900D92A830B107D9F721E0A8E0B1E0C2
:1000900001C01D92AC30B207E1F70E941A040C9423
:1000A0004E070C940000EF920F9388E0E82E01E0D9
:1000B00020E041E060E875E280E090E00E946C01A1
:1000C0000E9473000E942C0280E28AB91BB82FEFB5
:1000D00083EC99E0215080409040E1F700C000009F
:1000E0000F91EF900895109208011092090110925B
:1000F0000A0110920B01E4E6F0E08081877F8083A3
:10010000E0E8F0E080818F70808380818C7F808345
:10011000E1E8F0E080818F7E808380818860808349
:1001200080818F7380838081897F808380818160DB
:100130008083E2E8F0E080818F7380832FB7F894AA
:1001400080E89EE390938900809388002FBFEFE6BC
:10015000F0E01082808182608083789408952FB7C8
:10016000F894609108017091090180910A019091C1
:100170000B012FBF08951F920F920FB60F921124FB
:100180008F939F93AF93BF93809108019091090142
:10019000A0910A01B0910B010196A11DB11D8093A0
:1001A000080190930901A0930A01B0930B01BF913C
:1001B000AF919F918F910F900FBE0F901F90189548
:1001C0008AB188668AB9239AE4E6F0E080818F7963
:1001D000808381E084BDE0EBF0E0808384B5806AB9
:1001E00084BD8081806A808383E085BD84E08093C4
:1001F000B1008EE688BD8093B40087BD8093B300C4
:10020000089585EF88BD8093B40087BD8093B300C7
:100210002FEF83ED90E3215080409040E1F700C044
:10022000000085EF88BD8093B40087BD8093B30044
:10023000EFEDFEE23197F1F700C0000081508D36FE
:1002400089F708956536C0F49FEF980F9430A0F4B5
:10025000662311F0635801C06EE6833049F08430A4
:1002600049F0823011F068BD08956093B40008959C
:1002700067BD08956093B3000895823061F020F463
:100280008130A9F488B50BC0833041F0843079F413
:100290008091B30004C08091B40001C087B592E999
:1002A000980F983830F49F3030F08D5708958AECCD
:1002B000089589EC089580E0089560E00C9422018F
:1002C00081E00E945D0182E00E945D0183E00E9466
:1002D0005D0184E00C945D018F929F92AF92BF927A
:1002E000EF92FF920F934B015C018091C2008E73DD
:1002F0008093C2008091C0008D7F8093C000423007
:1003000031F0433031F0413039F488E003C080E10E
:1003100001C088E18093C100213081F058F0223083
:1003200091F48091C20081608093C2008091C200EC
:100330008F7E07C08091C2008F7C03C08091C20075
:1003400080638093C200013031F0023049F4809123
:10035000C200886003C08091C200877F8093C20082
:100360008091C200887F8093C2008091C200F12CEE
:1003700095E0E91AF108EE0CFF1C8E298093C2006B
:100380001092C50060E472E48FE090E0A501940152
:100390000E945B04215031092093C4000F91FF900B
:1003A000EF90BF90AF909F908F9008959091C00074
:1003B00095FFFCCF8093C60008950F931F93CF93B2
:1003C000DF93EC018E0189910E94D601F8018081B2
:1003D0008111F8CFDF91CF911F910F910895FC010A
:1003E0008091C00087FD04C0309711F181E00FC0FB
:1003F0008091C00084FF04C03097D1F08FEF07C018
:100400008091C00082FF05C0309791F08EEF80830D
:100410000FC08091C00083FF05C0309731F08DEF91
:10042000808303C0309709F010828091C600089540
:1004300080E008958091C000881F8827881F089554
:100440007894E1ECF0E080818068808308950097E3
:1004500011F0FC016083089587B18F7C87B988B162
:10046000806388B982E08093B90088E48093B80003
:1004700084E08093BC00089594EA9093BC0090912E
:10048000BC0097FFFCCF9091B900987F9830C1F4E1
:100490008093BB0094E89093BC009091BC0097FFC0
:1004A000FCCF4091B9008170487F50E098E2899F6D
:1004B00090011124285E3F4F81E04217530709F055
:1004C00080E0089594EA9093BC009091BC0097FF5F
:1004D000FCCF9091B900987F9031C1F48093BB001C
:1004E00094E89093BC009091BC0097FFFCCF4091A2
:1004F000B9008170487F50E098E2899F90011124F3
:10050000285E3F4F81E04217530709F080E00895CD
:100510008093BB0084E88093BC008091BC0087FF7F
:10052000FCCF9091B900987F81E0983209F080E08B
:10053000089584E98093BC008091BC0084FDFCCFC9
:100540000895AF92BF92DF92EF92FF920F931F93A5
:10055000CF93DF9300D000D0CDB7DEB7D22EE82EF8
:10056000EE0C8E2D4B835C8369837A830E943C0260
:100570004B815C8169817A81882309F15A018B0161
:10058000F12CFD14C9F0F11008C0F80181918F0120
:100590000E948802811107C014C08E2D0E94620241
:1005A0008111F3CF0EC0F50181915F010E94880295
:1005B000811107C0F394E5CF0E94990202C080E048
:1005C00001C08F2D0F900F900F900F90DF91CF9162
:1005D0001F910F91FF90EF90DF90BF90AF90089523
:1005E000CF93DF9300D0CDB7DEB769834A8321E094
:1005F000AE014E5F5F4FBE016F5F7F4F0E94A10251
:100600000F900F90DF91CF9108951F93CF93DF93B9
:100610001F92CDB7DEB7182F880F69830E943C0266
:100620006981811102C080E01DC0862F0E9488026E
:100630008823C9F3812F880F81600E94620288237A
:1006400091F384E88093BC008091BC0087FFFCCFCD
:100650008091B900887F883531F71091BB000E94E6
:100660009902812F0F90DF91CF911F9108958F9262
:100670009F92BF92CF92DF92EF92FF920F931F93C0
:10068000CF93DF9300D0CDB7DEB78B01C22ED82E2B
:10069000DD0C8D2D49835A830E943C0249815A8189
:1006A000882399F18D2D8160E82E4A01F12C84E890
:1006B000B82EFC1439F1F11008C0F80180818F0DBB
:1006C0000E948802811107C022C08D2D0E94620203
:1006D0008111F3CF1CC08E2D0E9462028823B9F0D5
:1006E000B092BC008091BC0087FFFCCF9091B90014
:1006F000987F983561F48091BB00F40181934F019C
:10070000F394D7CF0E94990202C080E001C08F2DE0
:100710000F900F90DF91CF911F910F91FF90EF906D
:10072000DF90CF90BF909F908F900895EF92FF92AF
:100730000F931F93CF93DF931F92CDB7DEB77A014C
:10074000022F880F69830E943C026981811102C0D7
:1007500080E012C0862F0E9488028823C9F310E02F
:10076000101739F0F7018081810F0E9488021F5F06
:10077000F7CF0E949902812F0F90DF91CF911F91A7
:100780000F91FF90EF900895EF92FF920F931F93B8
:10079000CF93DF931F92CDB7DEB7F82E042FE52E4F
:1007A000122F880F69830E943C026981811102C067
:1007B00080E038C0862F0E9488028823C9F38F2DDD
:1007C000880F81600E946202882391F3E02FFE2D42
:1007D000E12CF12C20E0412F50E04150510934EC44
:1007E00064E88E2DE116D8F4E416F50621F4609342
:1007F000BC0028E002C03093BC009091BC0097FF81
:10080000FCCF9091B900987F722F706597130AC042
:100810008091BB0081938FEFE81AF80AE2CF0E9423
:1008200099028E2D0F90DF91CF911F910F91FF9024
:10083000EF900895FF920F931F93CF93DF93CDB75F
:10084000DEB72A970FB6F894DEBF0FBECDBF0E9469
:1008500053008BB190E2F92E8F258BB981ED0E9468
:100860003C021F928F9381E091E09F938F938E01C2
:100870000F5F1F4F1F930F930E947D048BE30E9415
:1008800088028BB18F258BB9C8010E94DD010F90C2
:100890000F900F900F900F900F9080E090E02A96AD
:1008A0000FB6F894DEBF0FBECDBFDF91CF911F9181
:1008B0000F91FF900895A1E21A2EAA1BBB1BFD0108
:1008C0000DC0AA1FBB1FEE1FFF1FA217B307E4072F
:1008D000F50720F0A21BB30BE40BF50B661F771F87
:1008E000881F991F1A9469F7609570958095909567
:1008F0009B01AC01BD01CF010895AEE0B0E0E3E89B
:10090000F4E00C9425070D891E8986E08C831A83F8
:1009100009838FEF9FE79E838D83AE01475E5F4F14
:100920006F89788DCE0101960E949F04EF81F88532
:10093000E00FF11F10822E96E4E00C944107ACE02A
:10094000B0E0E5EAF4E00C9417077C016B018A0142
:10095000FC0117821682838181FFBDC1CE01019601
:100960004C01F7019381F60193FD859193FF8191ED
:100970006F01882309F4ABC1853239F493FD859169
:1009800093FF81916F01853229F4B70190E00E94B5
:100990008706E7CF512C312C20E02032A0F48B3297
:1009A00069F030F4803259F0833269F420612CC050
:1009B0008D3239F0803339F4216026C02260246002
:1009C00023C0286021C027FD27C030ED380F3A3002
:1009D00078F426FF06C0FAE05F9E300D1124532EF6
:1009E00013C08AE0389E300D1124332E20620CC0D3
:1009F0008E3221F426FD6BC1206406C08C3611F4C2
:100A0000206802C0883641F4F60193FD859193FF7A
:100A100081916F018111C1CF982F9F7D95549330A3
:100A200028F40C5F1F4FFFE3F9830DC0833631F0CC
:100A3000833771F0833509F05BC022C0F8018081F3
:100A400089830E5F1F4F44244394512C540115C0D9
:100A50003801F2E06F0E711CF801A080B18026FF12
:100A600003C0652D70E002C06FEF7FEFC5012C87DA
:100A70000E947C062C0183012C852F77222E17C023
:100A80003801F2E06F0E711CF801A080B18026FFE2
:100A900003C0652D70E002C06FEF7FEFC5012C87AA
:100AA0000E9471062C012C852068222E830123FCD4
:100AB0001BC0832D90E048165906B0F4B70180E2C0
:100AC00090E00E9487063A94F4CFF50127FC8591C7
:100AD00027FE81915F01B70190E00E9487063110E7
:100AE0003A94F1E04F1A51084114510471F7E5C0EE
:100AF000843611F0893639F5F80127FF07C0608187
:100B00007181828193810C5F1F4F08C06081718168
:100B1000882777FD8095982F0E5F1F4F2F76B22E76
:100B200097FF09C090958095709561957F4F8F4F85
:100B30009F4F2068B22E2AE030E0A4010E94B9063F
:100B4000A82EA81844C0853729F42F7EB22E2AE09B
:100B500030E025C0F22FF97FBF2E8F36C1F018F498
:100B6000883579F0B4C0803719F0883721F0AFC0EC
:100B70002F2F2061B22EB4FE0DC08B2D8460B82EB5
:100B800009C024FF0AC09F2F9660B92E06C028E036
:100B900030E005C020E130E002C020E132E0F801A1
:100BA000B7FE07C060817181828193810C5F1F4F06
:100BB00006C06081718180E090E00E5F1F4FA4014C
:100BC0000E94B906A82EA818FB2DFF77BF2EB6FEEF
:100BD0000BC02B2D2E7FA51450F4B4FE0AC0B2FC1E
:100BE00008C02B2D2E7E05C07A2C2B2D03C07A2C0D
:100BF00001C0752C24FF0DC0FE01EA0DF11D80819E
:100C0000803311F4297E09C022FF06C073947394C7
:100C100004C0822F867809F0739423FD13C020FF4F
:100C200006C05A2C731418F4530C5718732C7314F1
:100C300068F4B70180E290E02C870E9487067394E5
:100C40002C85F5CF731410F4371801C0312C24FF14
:100C500012C0B70180E390E02C870E9487062C85A4
:100C600022FF17C021FF03C088E590E002C088E79B
:100C700090E0B7010CC0822F867859F021FD02C0A8
:100C800080E201C08BE227FD8DE2B70190E00E9477
:100C90008706A51438F4B70180E390E00E94870628
:100CA0005A94F7CFAA94F401EA0DF11D8081B7019F
:100CB00090E00E948706A110F5CF332009F451CEB1
:100CC000B70180E290E00E9487063A94F6CFF701E0
:100CD0008681978102C08FEF9FEF2C96E2E10C9402
:100CE0003307FC010590615070400110D8F78095E2
:100CF00090958E0F9F1F0895FC01615070400190E8
:100D00000110D8F7809590958E0F9F1F08950F932F
:100D10001F93CF93DF93182F092FEB018B8181FD58
:100D200003C08FEF9FEF20C082FF10C04E815F8114
:100D30002C813D81421753077CF4E881F9819F01A2
:100D40002F5F3F4F39832883108306C0E885F985DC
:100D5000812F0995892B29F72E813F812F5F3F4FE6
:100D60003F832E83812F902FDF91CF911F910F9181
:100D70000895FA01AA27283051F1203181F1E89431
:100D80006F936E7F6E5F7F4F8F4F9F4FAF4FB1E07E
:100D90003ED0B4E03CD0670F781F891F9A1FA11D79
:100DA000680F791F8A1F911DA11D6A0F711D811D7A
:100DB000911DA11D20D009F468943F912AE0269F3F
:100DC00011243019305D3193DEF6CF010895462F9E
:100DD0004770405D4193B3E00FD0C9F7F6CF462F7F
:100DE0004F70405D4A3318F0495D31FD40524193E8
:100DF00002D0A9F7EACFB4E0A695979587957795A5
:100E00006795BA95C9F700976105710508959B012B
:100E1000AC010A2E06945795479537952795BA95B4
:100E2000C9F7620F731F841F951FA01D08952F928D
:100E30003F924F925F926F927F928F929F92AF926A
:100E4000BF92CF92DF92EF92FF920F931F93CF93B7
:100E5000DF93CDB7DEB7CA1BDB0B0FB6F894DEBF4E
:100E60000FBECDBF09942A88398848885F846E8474
:100E70007D848C849B84AA84B984C884DF80EE80BE
:100E8000FD800C811B81AA81B981CE0FD11D0FB6C7
:100E9000F894DEBF0FBECDBFED010895F894FFCFEB
:080EA000682523780D0A00000B
:00000001FF
